{
  "_format": "hh-sol-artifact-1",
  "contractName": "Lottery",
  "sourceName": "contracts/Lottery.sol",
  "abi": [
    {
      "inputs": [
        {
          "internalType": "address",
          "name": "vrfCoordinatorV2",
          "type": "address"
        },
        {
          "internalType": "uint256",
          "name": "entranceFee",
          "type": "uint256"
        },
        {
          "internalType": "bytes32",
          "name": "gasLane",
          "type": "bytes32"
        },
        {
          "internalType": "uint64",
          "name": "subscriptionId",
          "type": "uint64"
        },
        {
          "internalType": "uint32",
          "name": "callbackGasLimit",
          "type": "uint32"
        },
        {
          "internalType": "uint256",
          "name": "interval",
          "type": "uint256"
        }
      ],
      "stateMutability": "nonpayable",
      "type": "constructor"
    },
    {
      "inputs": [],
      "name": "LotteryState__NotOpen",
      "type": "error"
    },
    {
      "inputs": [],
      "name": "Lottery__NotEnoughETHEntered",
      "type": "error"
    },
    {
      "inputs": [],
      "name": "Lottery__TransferFailed",
      "type": "error"
    },
    {
      "inputs": [
        {
          "internalType": "uint256",
          "name": "currentBalance",
          "type": "uint256"
        },
        {
          "internalType": "uint256",
          "name": "numParticipants",
          "type": "uint256"
        },
        {
          "internalType": "uint256",
          "name": "lotteryState",
          "type": "uint256"
        }
      ],
      "name": "Lottery__UpKeepNotNeeded",
      "type": "error"
    },
    {
      "inputs": [
        {
          "internalType": "address",
          "name": "have",
          "type": "address"
        },
        {
          "internalType": "address",
          "name": "want",
          "type": "address"
        }
      ],
      "name": "OnlyCoordinatorCanFulfill",
      "type": "error"
    },
    {
      "anonymous": false,
      "inputs": [
        {
          "indexed": true,
          "internalType": "address",
          "name": "participant",
          "type": "address"
        }
      ],
      "name": "LotteryEnter",
      "type": "event"
    },
    {
      "anonymous": false,
      "inputs": [
        {
          "indexed": true,
          "internalType": "uint256",
          "name": "requestId",
          "type": "uint256"
        }
      ],
      "name": "RequestedLotteryWinner",
      "type": "event"
    },
    {
      "anonymous": false,
      "inputs": [
        {
          "indexed": true,
          "internalType": "address",
          "name": "winner",
          "type": "address"
        }
      ],
      "name": "WinnerPicked",
      "type": "event"
    },
    {
      "inputs": [
        {
          "internalType": "bytes",
          "name": "",
          "type": "bytes"
        }
      ],
      "name": "checkUpkeep",
      "outputs": [
        {
          "internalType": "bool",
          "name": "upkeepNeeded",
          "type": "bool"
        },
        {
          "internalType": "bytes",
          "name": "",
          "type": "bytes"
        }
      ],
      "stateMutability": "nonpayable",
      "type": "function"
    },
    {
      "inputs": [],
      "name": "enterLottery",
      "outputs": [],
      "stateMutability": "payable",
      "type": "function"
    },
    {
      "inputs": [],
      "name": "getEntranceFee",
      "outputs": [
        {
          "internalType": "uint256",
          "name": "",
          "type": "uint256"
        }
      ],
      "stateMutability": "view",
      "type": "function"
    },
    {
      "inputs": [],
      "name": "getInterval",
      "outputs": [
        {
          "internalType": "uint256",
          "name": "",
          "type": "uint256"
        }
      ],
      "stateMutability": "view",
      "type": "function"
    },
    {
      "inputs": [],
      "name": "getLatestTimestamp",
      "outputs": [
        {
          "internalType": "uint256",
          "name": "",
          "type": "uint256"
        }
      ],
      "stateMutability": "view",
      "type": "function"
    },
    {
      "inputs": [],
      "name": "getLotteryState",
      "outputs": [
        {
          "internalType": "enum Lottery.LotteryState",
          "name": "",
          "type": "uint8"
        }
      ],
      "stateMutability": "view",
      "type": "function"
    },
    {
      "inputs": [],
      "name": "getNumWords",
      "outputs": [
        {
          "internalType": "uint256",
          "name": "",
          "type": "uint256"
        }
      ],
      "stateMutability": "pure",
      "type": "function"
    },
    {
      "inputs": [],
      "name": "getNumberOfParticipants",
      "outputs": [
        {
          "internalType": "uint256",
          "name": "",
          "type": "uint256"
        }
      ],
      "stateMutability": "view",
      "type": "function"
    },
    {
      "inputs": [
        {
          "internalType": "uint256",
          "name": "i",
          "type": "uint256"
        }
      ],
      "name": "getParticipants",
      "outputs": [
        {
          "internalType": "address",
          "name": "",
          "type": "address"
        }
      ],
      "stateMutability": "view",
      "type": "function"
    },
    {
      "inputs": [],
      "name": "getRecentWinner",
      "outputs": [
        {
          "internalType": "address",
          "name": "",
          "type": "address"
        }
      ],
      "stateMutability": "view",
      "type": "function"
    },
    {
      "inputs": [],
      "name": "getRequestConfirmations",
      "outputs": [
        {
          "internalType": "uint256",
          "name": "",
          "type": "uint256"
        }
      ],
      "stateMutability": "pure",
      "type": "function"
    },
    {
      "inputs": [
        {
          "internalType": "bytes",
          "name": "",
          "type": "bytes"
        }
      ],
      "name": "performUpkeep",
      "outputs": [],
      "stateMutability": "nonpayable",
      "type": "function"
    },
    {
      "inputs": [
        {
          "internalType": "uint256",
          "name": "requestId",
          "type": "uint256"
        },
        {
          "internalType": "uint256[]",
          "name": "randomWords",
          "type": "uint256[]"
        }
      ],
      "name": "rawFulfillRandomWords",
      "outputs": [],
      "stateMutability": "nonpayable",
      "type": "function"
    }
  ],
  "bytecode": "0x6101606040523480156200001257600080fd5b5060405162001fb938038062001fb98339818101604052810190620000389190620002ac565b858073ffffffffffffffffffffffffffffffffffffffff1660808173ffffffffffffffffffffffffffffffffffffffff1660601b81525050506200008d676ef777b563003b6660c01b6200023660201b60201c565b620000a967c874d4a5bfc3bd0160c01b6200023660201b60201c565b8460a08181525050620000cd6787a738e61df4e6d360c01b6200023660201b60201c565b8573ffffffffffffffffffffffffffffffffffffffff1660c08173ffffffffffffffffffffffffffffffffffffffff1660601b815250506200012067c36c9c50cab8333d60c01b6200023660201b60201c565b8360e081815250506200014467b34dc16fe4e8ee4360c01b6200023660201b60201c565b8267ffffffffffffffff166101008167ffffffffffffffff1660c01b815250506200018067d00c8702f46216ad60c01b6200023660201b60201c565b8163ffffffff166101208163ffffffff1660e01b81525050620001b4675b528b1912e354f360c01b6200023660201b60201c565b6000600160146101000a81548160ff02191690836001811115620001dd57620001dc620003b4565b5b0217905550620001fe6776163011c35264d260c01b6200023660201b60201c565b426002819055506200022167e69bdf9965e5ad1960c01b6200023660201b60201c565b8061014081815250505050505050506200046a565b50565b6000815190506200024a81620003e8565b92915050565b600081519050620002618162000402565b92915050565b60008151905062000278816200041c565b92915050565b6000815190506200028f8162000436565b92915050565b600081519050620002a68162000450565b92915050565b60008060008060008060c08789031215620002cc57620002cb620003e3565b5b6000620002dc89828a0162000239565b9650506020620002ef89828a0162000267565b95505060406200030289828a0162000250565b94505060606200031589828a0162000295565b93505060806200032889828a016200027e565b92505060a06200033b89828a0162000267565b9150509295509295509295565b6000620003558262000366565b9050919050565b6000819050919050565b600073ffffffffffffffffffffffffffffffffffffffff82169050919050565b6000819050919050565b600063ffffffff82169050919050565b600067ffffffffffffffff82169050919050565b7f4e487b7100000000000000000000000000000000000000000000000000000000600052602160045260246000fd5b600080fd5b620003f38162000348565b8114620003ff57600080fd5b50565b6200040d816200035c565b81146200041957600080fd5b50565b620004278162000386565b81146200043357600080fd5b50565b620004418162000390565b81146200044d57600080fd5b50565b6200045b81620003a0565b81146200046757600080fd5b50565b60805160601c60a05160c05160601c60e0516101005160c01c6101205160e01c61014051611ad3620004e6600039600081816109110152610a1f0152600061062d0152600061060a015260006105e9015260006105ad0152600081816103360152610a8101526000818161035c01526103b00152611ad36000f3fe6080604052600436106100c25760003560e01c80636b68c03c1161007f578063c1af578511610059578063c1af578514610259578063c1e3bd3e14610263578063c80c28a2146102a0578063f43b52cb146102cb576100c2565b80636b68c03c146101c55780636e04ff0d146101f057806391ad27b41461022e576100c2565b806309bc33a7146100c75780631fe543e3146100f25780634585e33b1461011b578063473f1ddc1461014457806353a2c19a1461016f5780635f1b0fd81461019a575b600080fd5b3480156100d357600080fd5b506100dc6102f6565b6040516100e991906116d9565b60405180910390f35b3480156100fe57600080fd5b50610119600480360381019061011491906114b2565b61035a565b005b34801561012757600080fd5b50610142600480360381019061013d91906113c2565b61041a565b005b34801561015057600080fd5b5061015961071d565b60405161016691906115f7565b60405180910390f35b34801561017b57600080fd5b50610184610783565b60405161019191906116d9565b60405180910390f35b3480156101a657600080fd5b506101af6107ce565b6040516101bc91906116d9565b60405180910390f35b3480156101d157600080fd5b506101da610817565b6040516101e791906116be565b60405180910390f35b3480156101fc57600080fd5b506102176004803603810190610212919061140f565b61086a565b60405161022592919061163b565b60405180910390f35b34801561023a57600080fd5b506102436109df565b60405161025091906116d9565b60405180910390f35b610261610a43565b005b34801561026f57600080fd5b5061028a60048036038101906102859190611458565b610cde565b60405161029791906115f7565b60405180910390f35b3480156102ac57600080fd5b506102b5610d62565b6040516102c291906116d9565b60405180910390f35b3480156102d757600080fd5b506102e0610dab565b6040516102ed91906116d9565b60405180910390f35b600061030c6762907edfd2184bc660c01b610df1565b61032067c43a389f27930ee760c01b610df1565b610334674205437986b2666760c01b610df1565b7f0000000000000000000000000000000000000000000000000000000000000000905090565b7f000000000000000000000000000000000000000000000000000000000000000073ffffffffffffffffffffffffffffffffffffffff163373ffffffffffffffffffffffffffffffffffffffff161461040c57337f00000000000000000000000000000000000000000000000000000000000000006040517f1cf993f4000000000000000000000000000000000000000000000000000000008152600401610403929190611612565b60405180910390fd5b6104168282610df4565b5050565b61042e6701001e8baebac18f60c01b610df1565b610442677965f5d4a16552da60c01b610df1565b610456677b0e6148bf044a0160c01b610df1565b60006104706040518060200160405280600081525061086a565b509050610487678db5633b46bf4d8660c01b610df1565b61049b679c75efe4043847af60c01b610df1565b8061052f576104b467697810f68320b78060c01b610df1565b6104c86789a21305f383debe60c01b610df1565b47600080549050600160149054906101000a900460ff1660018111156104f1576104f06119b3565b5b6040517fa9e3cfef000000000000000000000000000000000000000000000000000000008152600401610526939291906116f4565b60405180910390fd5b61054367acd89989b944208460c01b610df1565b61055767ca8757db3c00f81a60c01b610df1565b60018060146101000a81548160ff0219169083600181111561057c5761057b6119b3565b5b021790555061059567dc76e6153ea5c0eb60c01b610df1565b6105a96751b43436a8f593d760c01b610df1565b60007f000000000000000000000000000000000000000000000000000000000000000073ffffffffffffffffffffffffffffffffffffffff16635d3b1d307f00000000000000000000000000000000000000000000000000000000000000007f000000000000000000000000000000000000000000000000000000000000000060037f000000000000000000000000000000000000000000000000000000000000000060016040518663ffffffff1660e01b815260040161066e95949392919061166b565b602060405180830381600087803b15801561068857600080fd5b505af115801561069c573d6000803e3d6000fd5b505050506040513d601f19601f820116820180604052508101906106c09190611485565b90506106d66776b98d47114ee8ed60c01b610df1565b6106ea670c5a7cb00b46747260c01b610df1565b807febf56642252004c18a776f30d528e7a0ce8c5db14b6596fb6550f630c8a24c6c60405160405180910390a250505050565b600061073367aae4333b656625c860c01b610df1565b6107476720007d8fd0afd7cf60c01b610df1565b61075b67cd9771a04144f5ab60c01b610df1565b600160009054906101000a900473ffffffffffffffffffffffffffffffffffffffff16905090565b600061079967be01dbf33fdbf30c60c01b610df1565b6107ad6720843f40a6710a5360c01b610df1565b6107c1676ae2d04fcc344b4a60c01b610df1565b600163ffffffff16905090565b60006107e467d5da5cfae138bd8460c01b610df1565b6107f86765be2af1c76f876860c01b610df1565b61080c67c0fca2760ec5aef660c01b610df1565b600361ffff16905090565b600061082d679dbcdd06444579e860c01b610df1565b61084167275cb3fe24f8c86760c01b610df1565b610855679557f214895781b760c01b610df1565b600160149054906101000a900460ff16905090565b6000606061088267e30c8ced51fe1fe660c01b610df1565b6108966703ea64745f28f36c60c01b610df1565b6108aa67ce517d8d90a47a9260c01b610df1565b6000600160149054906101000a900460ff1660018111156108ce576108cd6119b3565b5b600060018111156108e2576108e16119b3565b5b1490506108f96765ac046d262bda0760c01b610df1565b61090d6751d8604c8c87052c60c01b610df1565b60007f00000000000000000000000000000000000000000000000000000000000000006002544261093e91906117d4565b1190506109556712651264d480b53560c01b610df1565b6109696728439070bd824c5960c01b610df1565b60008060008054905011905061098967e6a1b98febf6ecf160c01b610df1565b61099d675a48b60a7cbc6e1960c01b610df1565b600080471190506109b867786dc23ac45c724b60c01b610df1565b8380156109c25750825b80156109cb5750815b80156109d45750805b955050505050915091565b60006109f567f54ed2d3140e2ccc60c01b610df1565b610a096751c4743c145a760f60c01b610df1565b610a1d67c5805f881b6b133860c01b610df1565b7f0000000000000000000000000000000000000000000000000000000000000000905090565b610a57679d0d5e2cfc8e411660c01b610df1565b610a6b671ad8bcc132476a8660c01b610df1565b610a7f67473860f6705aa5e260c01b610df1565b7f0000000000000000000000000000000000000000000000000000000000000000341015610b0157610abb67fb39ce87fb3c3f5b60c01b610df1565b610acf679bcc46380227573360c01b610df1565b6040517fec269fd100000000000000000000000000000000000000000000000000000000815260040160405180910390fd5b610b1567153d7898c50b017a60c01b610df1565b610b296752bb8973091655ce60c01b610df1565b610b3d67195052d73aad569e60c01b610df1565b60006001811115610b5157610b506119b3565b5b600160149054906101000a900460ff166001811115610b7357610b726119b3565b5b14610bd257610b8c676b7c29800b63556060c01b610df1565b610ba0679edc20327f9c53d860c01b610df1565b6040517f67bc901100000000000000000000000000000000000000000000000000000000815260040160405180910390fd5b610be667345eb4dba70c577c60c01b610df1565b610bfa671c7f9643a215959e60c01b610df1565b610c0e67f9d9d380b7609ada60c01b610df1565b6000339080600181540180825580915050600190039060005260206000200160009091909190916101000a81548173ffffffffffffffffffffffffffffffffffffffff021916908373ffffffffffffffffffffffffffffffffffffffff160217905550610c85674f3ca7a0d208df8260c01b610df1565b610c9967fcdb7c4c357829f760c01b610df1565b3373ffffffffffffffffffffffffffffffffffffffff167f1d64fb5ba9f2548c5b98468d58f25b87b9e866afee0122e92d9fe722bf85076c60405160405180910390a2565b6000610cf467a5d3eb80831ba50f60c01b610df1565b610d0867088e062f4164cb2360c01b610df1565b610d1c674d4b89e0cae1ab1760c01b610df1565b60008281548110610d3057610d2f6119e2565b5b9060005260206000200160009054906101000a900473ffffffffffffffffffffffffffffffffffffffff169050919050565b6000610d7867f72ec4397fdb653160c01b610df1565b610d8c670684c2482caf22ce60c01b610df1565b610da067478261a9d278b89b60c01b610df1565b600080549050905090565b6000610dc167925df75346a7fc3960c01b610df1565b610dd567e76a18ac3eff578d60c01b610df1565b610de9673a2624c3ac091ecd60c01b610df1565b600254905090565b50565b610e0867fbe32028bf2b233e60c01b610df1565b610e1c675ef96dbfa20de46160c01b610df1565b610e306726b764f71f3d82d760c01b610df1565b6000808054905082600081518110610e4b57610e4a6119e2565b5b6020026020010151610e5d9190611924565b9050610e7367e78d177522aaaa7d60c01b610df1565b610e87676755edbbe8df1ab260c01b610df1565b6000808281548110610e9c57610e9b6119e2565b5b9060005260206000200160009054906101000a900473ffffffffffffffffffffffffffffffffffffffff169050610edd67b59a7c2500d1bc4660c01b610df1565b80600160006101000a81548173ffffffffffffffffffffffffffffffffffffffff021916908373ffffffffffffffffffffffffffffffffffffffff160217905550610f32676c54c235b3a3d2ab60c01b610df1565b6000600160146101000a81548160ff02191690836001811115610f5857610f576119b3565b5b0217905550610f71675d4a749f5b21a4e360c01b610df1565b600067ffffffffffffffff811115610f8c57610f8b611a11565b5b604051908082528060200260200182016040528015610fba5781602001602082028036833780820191505090505b5060009080519060200190610fd092919061118d565b50610fe567b5fdbe64de4b95f960c01b610df1565b4260028190555061100067fd5be7b46c49ca4960c01b610df1565b61101467e78e77b7208a296560c01b610df1565b60008173ffffffffffffffffffffffffffffffffffffffff164760405161103a906115e2565b60006040518083038185875af1925050503d8060008114611077576040519150601f19603f3d011682016040523d82523d6000602084013e61107c565b606091505b505090506110946753c85960e01d1c7760c01b610df1565b6110a8674595269c8953472560c01b610df1565b80611107576110c167109dabcee128019c60c01b610df1565b6110d567e307e99ba36f34e260c01b610df1565b6040517f1c94012000000000000000000000000000000000000000000000000000000000815260040160405180910390fd5b61111b67b1f1e0d6fbdc159c60c01b610df1565b61112f6756eaf0653ab7ed3560c01b610df1565b611143674541fceba330d98c60c01b610df1565b8173ffffffffffffffffffffffffffffffffffffffff167f5b690ec4a06fe979403046eaeea5b3ce38524683c3001f662c8b5a829632f7df60405160405180910390a25050505050565b828054828255906000526020600020908101928215611206579160200282015b828111156112055782518260006101000a81548173ffffffffffffffffffffffffffffffffffffffff021916908373ffffffffffffffffffffffffffffffffffffffff160217905550916020019190600101906111ad565b5b5090506112139190611217565b5090565b5b80821115611230576000816000905550600101611218565b5090565b600061124761124284611750565b61172b565b9050808382526020820190508285602086028201111561126a57611269611a4a565b5b60005b8581101561129a57816112808882611398565b84526020840193506020830192505060018101905061126d565b5050509392505050565b60006112b76112b28461177c565b61172b565b9050828152602081018484840111156112d3576112d2611a4f565b5b6112de8482856118b1565b509392505050565b600082601f8301126112fb576112fa611a45565b5b813561130b848260208601611234565b91505092915050565b60008083601f84011261132a57611329611a45565b5b8235905067ffffffffffffffff81111561134757611346611a40565b5b60208301915083600182028301111561136357611362611a4a565b5b9250929050565b600082601f83011261137f5761137e611a45565b5b813561138f8482602086016112a4565b91505092915050565b6000813590506113a781611a86565b92915050565b6000815190506113bc81611a86565b92915050565b600080602083850312156113d9576113d8611a59565b5b600083013567ffffffffffffffff8111156113f7576113f6611a54565b5b61140385828601611314565b92509250509250929050565b60006020828403121561142557611424611a59565b5b600082013567ffffffffffffffff81111561144357611442611a54565b5b61144f8482850161136a565b91505092915050565b60006020828403121561146e5761146d611a59565b5b600061147c84828501611398565b91505092915050565b60006020828403121561149b5761149a611a59565b5b60006114a9848285016113ad565b91505092915050565b600080604083850312156114c9576114c8611a59565b5b60006114d785828601611398565b925050602083013567ffffffffffffffff8111156114f8576114f7611a54565b5b611504858286016112e6565b9150509250929050565b61151781611808565b82525050565b6115268161181a565b82525050565b61153581611826565b82525050565b6000611546826117ad565b61155081856117b8565b93506115608185602086016118c0565b61156981611a5e565b840191505092915050565b61157d8161189f565b82525050565b60006115906000836117c9565b915061159b82611a6f565b600082019050919050565b6115af81611843565b82525050565b6115be81611871565b82525050565b6115cd8161187b565b82525050565b6115dc8161188b565b82525050565b60006115ed82611583565b9150819050919050565b600060208201905061160c600083018461150e565b92915050565b6000604082019050611627600083018561150e565b611634602083018461150e565b9392505050565b6000604082019050611650600083018561151d565b8181036020830152611662818461153b565b90509392505050565b600060a082019050611680600083018861152c565b61168d60208301876115d3565b61169a60408301866115a6565b6116a760608301856115c4565b6116b460808301846115c4565b9695505050505050565b60006020820190506116d36000830184611574565b92915050565b60006020820190506116ee60008301846115b5565b92915050565b600060608201905061170960008301866115b5565b61171660208301856115b5565b61172360408301846115b5565b949350505050565b6000611735611746565b905061174182826118f3565b919050565b6000604051905090565b600067ffffffffffffffff82111561176b5761176a611a11565b5b602082029050602081019050919050565b600067ffffffffffffffff82111561179757611796611a11565b5b6117a082611a5e565b9050602081019050919050565b600081519050919050565b600082825260208201905092915050565b600081905092915050565b60006117df82611871565b91506117ea83611871565b9250828210156117fd576117fc611955565b5b828203905092915050565b600061181382611851565b9050919050565b60008115159050919050565b6000819050919050565b600081905061183e82611a72565b919050565b600061ffff82169050919050565b600073ffffffffffffffffffffffffffffffffffffffff82169050919050565b6000819050919050565b600063ffffffff82169050919050565b600067ffffffffffffffff82169050919050565b60006118aa82611830565b9050919050565b82818337600083830152505050565b60005b838110156118de5780820151818401526020810190506118c3565b838111156118ed576000848401525b50505050565b6118fc82611a5e565b810181811067ffffffffffffffff8211171561191b5761191a611a11565b5b80604052505050565b600061192f82611871565b915061193a83611871565b92508261194a57611949611984565b5b828206905092915050565b7f4e487b7100000000000000000000000000000000000000000000000000000000600052601160045260246000fd5b7f4e487b7100000000000000000000000000000000000000000000000000000000600052601260045260246000fd5b7f4e487b7100000000000000000000000000000000000000000000000000000000600052602160045260246000fd5b7f4e487b7100000000000000000000000000000000000000000000000000000000600052603260045260246000fd5b7f4e487b7100000000000000000000000000000000000000000000000000000000600052604160045260246000fd5b600080fd5b600080fd5b600080fd5b600080fd5b600080fd5b600080fd5b6000601f19601f8301169050919050565b50565b60028110611a8357611a826119b3565b5b50565b611a8f81611871565b8114611a9a57600080fd5b5056fea2646970667358221220b1792118dc389b257ad46faf99787cc84a3c239043f400c1c1cd50b333aa378a64736f6c63430008070033",
  "linkReferences": {},
  "deployedLinkReferences": {}
}